:020000040800F2
:10000000A0E6012011210008ED1E0008EF1E0008E7
:10001000F31E0008F71E0008FB1E00080000000089
:100020000000000000000000000000007102000855
:10003000FF1E000800000000C5020008E51B0008C4
:100040002B2100082B2100082B2100082B21000860
:100050002B2100082B2100082B2100082B21000850
:100060002B2100082B2100082B2100082B21000840
:100070002B2100082B2100082B2100082B21000830
:100080002B2100082B210008697500082B2100088E
:10009000437900082B2100082B2100082B210008A0
:1000A0002B2100082B2100082B2100082B21000800
:1000B0002B2100082B2100081D7900082B210008A6
:1000C0002B2100082B2100082B2100082B210008E0
:1000D0002B2100082B2100082B2100089385000804
:1000E0002B2100082B2100082B2100082B210008C0
:1000F0002B2100082B2100082B2100082B210008B0
:100100002B2100082B2100082B2100082B2100089F
:10011000A97B00082B210008D17C00082B210008B6
:100120002B2100082B2100082B2100082B2100087F
:100130002B2100082B2100082B2100082B2100086F
:100140002B2100082B2100082B2100082B2100085F
:100150002B2100082B2100082B2100082B2100084F
:100160002B2100082B2100082B2100082B2100083F
:100170002B2100082B2100082B2100082B2100082F
:100180002B2100082B21000800F002F800F060F895
:100190000AA090E8000C82448344AAF10107DA45E2
:1001A00001D100F055F8AFF2090EBAE80F0013F0D4
:1001B000010F18BFFB1A43F0010318470CF00000B1
:1001C0002CF0000010F8013B0A4413F0030408BFB0
:1001D00010F8014B1D1108BF10F8015B641E05D01B
:1001E00010F8016B641E01F8016BF9D1002D15D0D8
:1001F00010F8014B03F00C030C2BA1EB04040ABF15
:1002000010F8013BA4EB8314A4EB032405F10103D4
:1002100014F8016B5B1E01F8016BF9D5914238BFF0
:1002200010F8013BD1D3704700230024002500269D
:10023000103A28BF78C1FBD8520728BF30C148BF49
:100240000B6070471FB50AF002FB1FBD10B510BD53
:1002500008F034FD1146FFF7F5FF01F0F6FD08F058
:1002600052FD03B4FFF7F2FF03BC08F053FD00009A
:10027000294B19680868B0E8F04F80F30988BFF38C
:100280006F8F4FF0000080F311887047000000006E
:1002900006480068006880F3088862B661B6BFF35C
:1002A0004F8FBFF36F8F00DF00BF00BF08ED00E08E
:1002B000DFF80C00016841F470010160704700BF75
:1002C00088ED00E0EFF30980BFF36F8F124B1A68DF
:1002D0001EF0100F08BF20ED108A20E9F04F1060CB
:1002E00008B44FF0500080F3118800F0F8FF4FF091
:1002F000000080F3118808BC19680868B0E8F04F66
:100300001EF0100F08BFB0EC108A80F30988BFF30D
:100310006F8F704700BF000000000020EFF31180D6
:100320004FF0500181F31188704780F311887047B6
:10033000EFF30580704700F1080141604FF0FF3195
:10034000816000F10801C160016100210160704716
:1003500000210161704742684A6093688B6093682E
:1003600059609160086103685B1C0360704710B5B9
:1003700002460B685C1C0CB9106907E002F108002A
:1003800000E04068446824689C42FAD944684C60A4
:100390004C68A160886041600A611468641C146044
:1003A00010BD01460A69D1E901309860D1E9010325
:1003B00058605068884201D1886850600020086108
:1003C0001068401E106010687047000070B5054648
:1003D0000E462C461CB9FFF7A1FF00BFFEE701F057
:1003E000CEFBD4E90F12206801FB02006060002000
:1003F000A0632068A060E06B401E226C216800FBB7
:100400000210E0604FF0FF306064A06456B92069CC
:1004100008B9012000E0002060B904F1100001F0EB
:1004200081F907E004F11000FFF785FF04F12400D3
:10043000FFF781FF01F0C2FB012070BD2DE9F047FD
:1004400005460E4691464FF00008C5B14C2001F01C
:1004500024FC04469CB105FB06F0471C384601F01D
:100460001CFC2060206838B1E56326640121204629
:10047000FFF7ACFFA04602E0204601F060FCB8F1B7
:10048000000F03D1FFF74AFF00BFFEE74046BDE87B
:10049000F08710B5044601F072FB11E0606A08B9FC
:1004A000012000E0002038B904F1240001F03AF9FD
:1004B00018B101F014FA00E005E0A06C401EA06441
:1004C000A06C0028EADC00BF4FF0FF30A06401F010
:1004D00075FB01F054FB11E0206908B9012000E030
:1004E000002050B904F1100001F01CF908B101F02E
:1004F000F6F9606C401E606400E002E0606C002869
:10050000EADC00BF4FF0FF30606401F057FB10BD24
:1005100070B5054601F033FBA86BE96B884201D149
:10052000012400E0002401F049FB204670BD2DE9C4
:10053000F04104460E4615460027206C40B920685D
:1005400078BB606801F024FA07460020606028E06C
:100550007DB93146226CA06808F0E3FA216CA068EE
:100560000844A060D4E9011088421AD32068A06032
:1005700017E03146226CE06808F0D3FA216CE0689D
:10058000401AE0602168E068884203D2216C60680C
:10059000401AE060022D04D1A06B10B1A06B401E88
:1005A000A063A06B401CA0633846BDE8F0812DE934
:1005B000FF4383B006460F461D464FF00008344601
:1005C0001CB9FFF7ABFE00BFFEE70FB9206C08B9FE
:1005D000012000E0002018B9FFF7A0FE00BFFEE7F1
:1005E000022D02D1E06B012801D1012000E00020A2
:1005F00018B9FFF793FE00BFFEE700BF01F0BFFA96
:10060000A06BE16B884201D3022D17D12A463946EF
:100610002046FFF78CFF8146606A08B9012000E0A0
:10062000002020B904F1240001F07CF800E000BFB4
:1006300001F0C4FA012007B0BDE8F083059818B9AD
:1006400001F0BCFA0020F6E7B8F1000F04D101A8D0
:1006500001F0E0F84FF0010801F0B0FA00F033FDCE
:1006600001F08DFA606C401C08B900206064A06C39
:10067000401C08B90020A06401F0A0FA05A901A857
:1006800001F0D6F8C0B92046FFF742FF70B104F17F
:100690001000059900F0D5FF2046FFF7FAFE00F0A4
:1006A0006BFC0028AAD101F060FAA7E72046FFF70B
:1006B000F0FE00F061FCA1E72046FFF7EAFE00F043
:1006C0005BFC0020B7E770B505464C2001F0E5FA69
:1006D0000446D4B1002060602060A060E060A063A8
:1006E0000120E06300202064401E6064A06404F1E7
:1006F0001000FFF720FE04F12400FFF71CFE00238A
:100700001A4619462046FFF752FF1CB9FFF706FEAE
:1007100000BFFEE7204670BD70B5064634461CB9E2
:10072000FFF7FCFD00BFFEE701F0DDF861688842DD
:100730000CD1E068401EE060E06828B900231A464A
:1007400019462046FFF733FF012500E00025284623
:1007500070BD70B5054601F012FAA86B08B9012406
:1007600000E0002401F02AFA204670BD70B504466E
:100770000D46206C70B1216CE0680844E06061684F
:10078000E068884201D32068E0602846226CE16876
:1007900008F0C7F970BD2DE9FF4383B005460E464A
:1007A0001F464FF000092C461CB9FFF7B7FD00BFEC
:1007B000FEE70EB9206C08B9012000E0002018B94E
:1007C000FFF7ACFD00BFFEE700BF01F0D8F9A06B5A
:1007D00058B3D4F80C8031462046FFF7C7FF97B9CD
:1007E000A06B401EA063206810B901F021F9606081
:1007F000206908B9012000E0002080B904F1100050
:1008000000F090FF0BE0C4F80C80606A08B901208A
:1008100000E0002018B904F1240000F083FF01F08B
:10082000CDF9012007B0BDE8F083059818B901F0B3
:10083000C5F90020F6E7B9F1000F04D101A800F0D6
:10084000E9FF4FF0010901F0B9F900F03CFC01F0BB
:1008500096F9606C401C08B900206064A06C401CD4
:1008600008B90020A06401F0A9F905A901A800F0C9
:10087000DFFF08BB2046FFF76CFFB8B1206830B936
:1008800001F07DF9606801F031F801F097F904F1A9
:100890002400059900F0D5FE2046FFF7FAFD00F090
:1008A0006BFB002891D101F060F98EE72046FFF73D
:1008B000F0FD00F061FB88E72046FFF7EAFD00F05D
:1008C0005BFB0020AEE72DE9F04106460F463446BB
:1008D0001CB9FFF723FD00BFFEE701F004F86168D3
:1008E000884204D1E068401CE06001250BE0002351
:1008F0003A4619462046FFF74EFF0546012D02D124
:10090000E068401CE0602846BDE8F08170B505460F
:100910000E460DB1012000E0002018B9FFF7FEFCE3
:1009200000BFFEE7AE4201D8012000E0002018B968
:10093000FFF7F4FC00BFFEE7022200212846FFF784
:100940007DFD044604B1A6631CB9FFF7E7FC00BFB8
:10095000FEE7204670BD2DE9F0470746894615465B
:100960001E463C461CB9FFF7D9FC00BFFEE7B9F1B3
:10097000000F01D1206C08B9012000E0002018B957
:10098000FFF7CCFC00BFFEE7022E02D1E06B01288E
:1009900001D1012000E0002018B9FFF7BFFC00BF23
:1009A000FEE701F02EF9FFF7B9FC8246A06BE16B80
:1009B000884201D3022E20D1324649462046FFF715
:1009C000B6FD10B10DB101202860A06C401C70B9BB
:1009D000606A08B9012000E0002058B904F1240041
:1009E00000F0A0FE30B12DB10120286002E0A06C23
:1009F000401CA0644FF0010801E04FF00008504691
:100A0000FFF793FC4046BDE8F0872DE9F047054627
:100A1000884616462C461CB9FFF780FC00BFFEE74F
:100A2000B8F1000F01D1206C08B9012000E00020CE
:100A300018B9FFF773FC00BFFEE701F0E2F8FFF71B
:100A40006DFC8146A06BE8B141462046FFF78EFE63
:100A5000A06B401EA063606C401C70B9206908B98F
:100A6000012000E0002058B904F1100000F05AFE07
:100A700030B12EB10120306002E0606C401C606437
:100A8000012700E000274846FFF74FFC3846BDE845
:100A9000F0872DE9F04705460F462C461CB9FFF7B5
:100AA0003DFC00BFFEE70FB9206C08B9012000E053
:100AB000002018B9FFF732FC00BFFEE701F0A1F8F3
:100AC000FFF72CFC8146A06B48B1D4F80C80394666
:100AD0002046FFF74BFEC4F80C80012600E00026FC
:100AE0004846FFF722FC3046BDE8F08770B5044663
:100AF0001CB9FFF713FC00BFFEE701F040F8A56B3F
:100B000001F05CF8284670BD70B5044625461DB955
:100B1000FFF704FC00BFFEE701F031F8D5E90E1045
:100B2000461A01F04BF8304670BD70B504461CB94A
:100B3000FFF7F4FB00BFFEE7A56B284670BD01463A
:100B400000200BE02A4A02EBC00252688A4204D11C
:100B50000022274B43F8302002E0401C0828F1D344
:100B600000BF704770B505462C461CB9FFF7D6FB91
:100B700000BFFEE72046FFF7E2FF206810B12068C3
:100B800001F0DDF8204601F0DAF870BD70B50546D9
:100B90001DB9FFF7C3FB00BFFEE7A86B08B901242E
:100BA00000E00024204670BD70B504461CB9FFF774
:100BB000B5FB00BFFEE7A06BE16B884201D10125C8
:100BC00000E00025284670BD024600200BE0084BDF
:100BD00053F8303033B9064B43F8301003EBC00301
:100BE0005A6002E0401C0828F1D300BF70470000A3
:100BF000F041002010B5002407E004EB8401FE4A18
:100C000002EB8100FFF797FB641C0A2CF5D3FB482D
:100C1000FFF791FBFA48FFF78EFBFA48FFF78BFBD3
:100C2000F948FFF788FBF948FFF785FBF348F849D7
:100C30000860F348F749086010BD2DE9F047044605
:100C40000F4615469946DDF82080002607E0B95D7D
:100C500004F134008155B85D00B902E0761C0A2E1B
:100C6000F5D300BF00213D2001550A2D00D30925F1
:100C7000E562256400206064201DFFF769FB04F134
:100C80001800FFF765FB2461C5F10A00A0616462EA
:100C9000BDE8F08770B505460E46482000F0FDFF20
:100CA000044664B11EB9A80000F0F7FF00E030462A
:100CB0002063206B18B9204601F041F8002420463B
:100CC00070BD2DE9FF4F81B0804615469A46DDE99B
:100CD0000E6BB8F1000F03D1FFF720FB00BFFEE75A
:100CE0000A2E01D2012000E0002018B9FFF716FB00
:100CF00000BFFEE728461099FFF7CCFF0446002C02
:100D00005AD0681E216B01EB800929F0070909F010
:100D1000070008B9012000E0002018B9FFF7FEFA2B
:100D200000BFFEE7009532462046119B0299FFF76F
:100D300084FF52464146484600F0A2FE2060BBF1C7
:100D4000000F01D0CBF8004000F019FFB248006856
:100D5000401CB1490860B148006840B9AF48046020
:100D60000846006801280CD1FFF744FF09E0AC48B1
:100D7000006830B9A9480068C06AB04201D8A748E5
:100D80000460A8480068401CA649086094F82C102C
:100D900001208840A44909680843A3490860E16A22
:100DA00001EB8101944A02EB8100211DFFF7D3FA88
:100DB000012700F003FF01E04FF0FF37012F04D1BE
:100DC0009748006808B195480068384605B0BDE806
:100DD000F08F8F490968096809B9012100E00021F5
:100DE00021B14FF0FF31914A116006E0884909684E
:100DF000C968C8688D4A41681160704770B505467A
:100E000000F0BDFE15B98548006800E0284604469C
:100E1000201DFFF7C6FA78B9E06A00EB800076493A
:100E200051F8200040B994F82C10012088407E49E8
:100E3000096881437C480160A06A18B104F1180078
:100E4000FFF7AFFA211D7048FFF785FA7848006870
:100E5000401C7749086073480068401C714908606D
:100E600000F0ACFE6E480068B8B16C48006884427F
:100E70000DD17048006808B9012000E0002018B9C1
:100E8000FFF74CFA00BFFEE700F06FFE05E000F050
:100E900076FEFFF79EFF00F091FE70BD2DE9F04158
:100EA0004FF000086348006800285DD16248006880
:100EB000401C6149086008460668DEB9544800686D
:100EC000006808B9012000E0002018B9FFF726FAF1
:100ED00000BFFEE74E4807684E4800684C4908606E
:100EE0004C48076055480068401C54490860FFF7AB
:100EF00070FF00BF4D480068864234D300BF4448AD
:100F00000068006808B9012000E0002020B14FF01F
:100F1000FF304649086025E03D480068C068C46865
:100F20006568AE4202D2414805601BE0201DFFF714
:100F300038FAA06A18B104F11800FFF732FA94F8F1
:100F40002C10012088403849096808433649086058
:100F5000E16A01EB8101284A02EB8100211DFFF7C4
:100F6000FAF9CCE700BF04E035480068401C34497A
:100F700008604046BDE8F08170B500252D48006846
:100F800018B9FFF7CBF900BFFEE700F0F8FD2948DC
:100F90000068401E274908600846006800286FD195
:100FA0001D48006800286BD024E01648C068C4685B
:100FB00004F11800FFF7F5F9201DFFF7F2F994F896
:100FC0002C10012088401849096808431649086018
:100FD000E16A01EB8101084A02EB8100211DFFF764
:100FE000BAF90E49E06A0968C96A884202D3012049
:100FF00014490860034827E030420020F8420020EE
:101000000C430020204300203443002048430020AC
:101010000400002008000020100000200000002034
:101020001C0000202C0000201800002030000020B0
:101030000C000020340000201400002028000020B4
:101040002000002024000020006808B9012000E0F2
:1010500000200028A9D0F848006878B10AE0FFF71E
:101060001DFF10B10120F5490860F3480068401EDB
:10107000F1490860F04800680028F0D1EF480068A6
:1010800000F09CFD284670BD10B50446EC48006891
:101090004460EC480068844207D2E9480168091DB1
:1010A000E9480068FFF763F90CE0E5480168091DAD
:1010B000E6480068FFF75BF9E5480068844201D222
:1010C000E348046010BDE3480068401CE149086043
:1010D00070472DE9F04704460E464FF000091CB951
:1010E000FFF71CF900BFFEE70EB1012000E0002071
:1010F00018B9FFF713F900BFFEE7D648006808B932
:10110000012000E0002018B9FFF708F900BFFEE752
:10111000FFF7D9FFCB48D0F80080206885192068F8
:10112000404507D92068A8420BD9454509D94FF059
:10113000010906E02068A84201D8454501D94FF0D1
:1011400001092560B9F1000F13D0BD480068001DEA
:10115000FFF727F950B9BA48006890F82C10012021
:101160008840BD4909688143BB4801602846FFF7B4
:101170008BFFFFF701FF07460FB900F0F6FCBDE853
:10118000F08770B50446002634B3B248006808B949
:10119000012000E0002018B9FFF7C0F800BFFEE70B
:1011A000FFF791FFA74800680519A5480068001DD2
:1011B000FFF7F7F850B9A248006890F82C1001200A
:1011C0008840A54909688143A34801602846FFF784
:1011D0005BFFFFF7D1FE06460EB900F0C6FC70BDFE
:1011E00070B5044600F0CBFC14B99548006800E0E7
:1011F00020460646F56A00F0E1FC284670BD2DE960
:10120000F04780460D464FF000090A2D01D201201B
:1012100000E0002018B9FFF781F800BFFEE70A2DB3
:1012200000D3092500F0ABFCB8F1000F02D18448CF
:10123000006800E040460446266CAE424BD0B54202
:101240000BD97F48006884420DD07D480068C06A91
:10125000A84208D84FF0010905E0794800688442A7
:1012600001D14FF00109E76AE16A206C884200D1A0
:10127000E5622564A06900F0004010B9C5F10A00DC
:10128000A06107EB8701754A02EB81016069884222
:1012900001D1012000E00020E0B1201DFFF781F81E
:1012A00030B90120B8406C49096881436A4801603F
:1012B00094F82C1001208840674909680843664962
:1012C0000860E16A01EB8101644A02EB8100211DA3
:1012D000FFF741F800BF00F071FCBDE8F08710B5E2
:1012E0005C48006818B10120544908602BE00020D8
:1012F0005249086058480068B0FA80F0C0F11F04F5
:1013000004EB8400554951F8200008B1012000E0A9
:10131000002018B9FFF702F800BFFEE704EB8401D4
:101320004E4A02EB810041684968416000F10801C2
:1013300042688A4202D14168496841604168C9688F
:101340003F4A116000BF10BD70B5054600F017FCA4
:1013500015B93B48006800E028460446201DFFF709
:1013600020F878B9E06A00EB80003C4951F8200091
:1013700040B994F82C10012088403749096881430E
:1013800035480160A06A18B104F11800FFF709F8A8
:10139000211D3348FEF7DFFF00F010FC28480068ED
:1013A00084421DD12F48006868B12A48006808B9F6
:1013B000012000E0002018B9FEF7B0FF00BFFEE7F3
:1013C00000F0D3FB15E026480068274909688842E9
:1013D00003D100201A4908600BE0FFF780FF08E006
:1013E0002048006828B100F0CAFBFFF7F2FC00F0CB
:1013F000E5FB70BD70B5054600262C461DB9FEF70D
:101400008DFF00BFFEE716496069884201D10120C7
:1014100000E0002070B11549A06A884201D1012086
:1014200000E0002030B9A06A08B9012000E00020E7
:1014300000B10126304670BD2000002024000020AD
:1014400000000020140000200800002004000020FC
:10145000300000203400002018000020304200201E
:10146000484300201C0000201000002020430020E2
:1014700070B505462C461DB9FEF750FF00BFFEE7CC
:101480001CB3F748006884421FD000F078FB204668
:10149000FFF7B0FF012816D1201DFEF782FF94F858
:1014A0002C1001208840EF4909680843ED49086085
:1014B000E16A01EB8101EC4A02EB8100211DFEF79C
:1014C0004AFFE748006800F079FB70BD2DE9F04164
:1014D000054600262C461DB9FEF720FF00BFFEE79B
:1014E00000F08FFBFEF71AFF07462046FFF782FF4A
:1014F000012824D1DD480068E0B9D949E06A0968CB
:10150000C96A884200D30126201DFEF74AFF94F8DD
:101510002C1001208840D34909680843D14908604C
:10152000E16A01EB8101D04A02EB8100211DFEF747
:1015300012FF04E004F11801CD48FEF70CFF384615
:10154000FEF7F3FE3046BDE8F08110B50446206B8F
:1015500000F0F5FB204600F0F2FB10BD70B523E073
:10156000FFF7B1FDC348006808B9012000E0002082
:101570000546FFF701FDBDB900F001FBBD48C0689D
:10158000C468201DFEF70DFFBB480068401EBA4925
:101590000860BA480068401EB849086000F00EFBB9
:1015A0002046FFF7D2FF00BFB44800680028D7D11B
:1015B00070BD00BFFFF7D2FF00F0D7FAFAE71FB502
:1015C000002000900190029003468222ACA103907B
:1015D000AD48FFF776FB0446012C0AD1FEF79EFECC
:1015E0000120AA4908600020A949086000F060FABB
:1015F00004E01CB9FEF792FE00BFFEE71FBD10B568
:10160000FEF78CFE0020A149086000F09FFA10BD93
:1016100010B500F0B4FA9E48046800F0CFFA2046F6
:1016200010BD70B500F0EDFAFEF778FE054698485B
:1016300004682846FEF779FE204670BD8E48006893
:10164000704770B505460C461DB9FEF767FE00BF32
:10165000FEE78348016818312846FEF788FE804877
:101660000068001DFEF79DFE50B97D48006890F8A7
:101670002C10012088407B4909688143794801602A
:10168000601C30B976480168091D8248FEF763FE88
:1016900005E07F48006806193046FFF7F5FC70BD8D
:1016A0002DE9F04105460E4614461DB9FEF736FEFB
:1016B00000BFFEE76D48006808B1012000E000208F
:1016C00018B9FEF72BFE00BFFEE746F00040644964
:1016D000096888616248016818312846FEF73BFEB8
:1016E0005F480068001DFEF75CFE50B95C4800686A
:1016F00090F82C10012088405A49096881435948C4
:101700000160601C30B956480168091D6148FEF748
:1017100022FE05E05E48006807193846FFF7B4FC72
:10172000BDE8F08170B50646F068C4681CB9FEF7E4
:10173000F5FD00BFFEE704F11800FEF732FE4B484E
:101740000068A8B9201DFEF72CFE94F82C1001208B
:10175000884044490968084342490860E16A01EB4E
:101760008101414A02EB8100211DFEF7F4FD04E0F6
:1017700004F118013E48FEF7EEFD3949E06A0968B8
:10178000C96A884204D9012501204349086000E064
:101790000025284670BD2DE9F04105460F46334827
:1017A000006808B1012000E0002018B9FEF7B6FD7E
:1017B00000BFFEE747F000402860EC681CB9FEF768
:1017C000ADFD00BFFEE72846FEF7EBFD201DFEF74E
:1017D000E8FD94F82C10012088402249096808434C
:1017E00020490860E16A01EB81011F4A02EB810098
:1017F000211DFEF7B0FD1A49E06A0968C96A8842EE
:1018000004D9012601202449086000E00026304662
:10181000BDE8F08110B504461CB9FEF77FFD00BF9E
:10182000FEE71E480068206019480068606010BD2F
:101830002DE9F04104460D461CB9FEF76FFD00BFCF
:10184000FEE71DB9FEF76AFD00BFFEE700F097F95D
:101850000F4807682868401C08B900263AE01FE0D6
:10186000000000201800002030420020340000203A
:101870002043002034430020100000200C000020F2
:1018800049444C4500000000B31500081C0000202E
:1018900014000020484300202400002028000020DD
:1018A0006A4920680968884204D06068B84201D853
:1018B00001260FE06068381A2968884209D2286832
:1018C0006168791A401A28602046FFF7A3FF0026B6
:1018D00000E0012600F072F93046BDE8F0810120F9
:1018E0005B49086070475B490868704770B50546FA
:1018F0002C46002D4BD05749E06A0968C96A8842D6
:1019000045D2A06900F0004028B952480068C06A7A
:10191000C0F10A00A061E16A01EB81014E4A02EBCD
:1019200081016069884201D1012000E0002050B3AC
:10193000201DFEF736FD78B9E06A00EB80004649CD
:1019400051F8200040B994F82C10012088404349F8
:1019500009688143414801603E480068C06AE0620E
:1019600094F82C10012088403C49096808433B4901
:101970000860E16A01EB8101374A02EB8100211D19
:10198000FEF7E9FC03E033480068C06AE06270BD1E
:1019900070B505462C460026002D3BD0606C18B96A
:1019A000FEF7BCFC00BFFEE7606C401E6064216C6B
:1019B000E06A88422ED0606C60BB201DFEF7F1FC0F
:1019C00078B9E06A00EB8000234951F8200040B963
:1019D00094F82C10012088402049096881431F4851
:1019E0000160206CE062E06AC0F10A00A06194F836
:1019F0002C100120884019490968084317490860DC
:101A0000E16A01EB8101144A02EB8100211DFEF71E
:101A1000A2FC0126304670BD0E49096888690D494F
:101A20000968C96AC1F10A010A4A126891617047DE
:101A30000848006830B10749096801F14400496C61
:101A4000491C01600348006870470000280000201E
:101A50002400002000000020304200201800002058
:101A60007C480068401C08B9012000E0002018B93B
:101A7000FEF754FC00BFFEE7FEF750FC00BFFEE798
:101A8000001F4FF080730360001F0160001F724B46
:101A9000036014380260001F6FF0020303602038F7
:101AA00070476E484FF0E021486107200861704799
:101AB0001CB56B48014609780191FF21024611705F
:101AC0000146097800919DF8001001F05001654A27
:101AD00011700721644A116009E063490968491ED1
:101AE000614A11609DF800104906090E00919DF8A9
:101AF000001001F080018029EFD05B4909680902DC
:101B0000594A11601146098801F4E0611160544A94
:101B1000019911705548006840F4700053490860FD
:101B20000846006840F070400860FFF7BAFF0020E8
:101B300048490860FEF7BCFB4D48006840F0404053
:101B40004B490860FEF7A4FB00201CBD10B54148BE
:101B50000068B0F57A7F01D1012000E0002018B9BB
:101B6000FEF7DCFB00BFFEE710BD4FF080503F49A1
:101B70001C390860BFF34F8FBFF36F8F704710B5EC
:101B8000FEF7CCFB33480068401C32490860BFF3C5
:101B90004F8FBFF36F8F0846006801280DD133487F
:101BA0001C38006800F01F0008B9012000E0002088
:101BB00018B9FEF7B3FB00BFFEE710BD10B525480E
:101BC000006818B9FEF7AAFB00BFFEE721480068CD
:101BD000401E204908600846006810B90020FEF742
:101BE000A4FB10BD10B5FEF799FBFFF757F920B124
:101BF0004FF080501D491C3908600020FEF795FB0E
:101C000010BD70B5FEF794FB0546102D0FD305F1FE
:101C1000E02090F8F04313480078844201DB012073
:101C200000E0002018B9FEF779FB00BFFEE70F487F
:101C30001438006800F4E0600B490968884201D854
:101C4000012000E0002018B9FEF768FB00BFFEE7A6
:101C500070BD000038000020611A00083F900200AB
:101C600000E400E03C0000204000002020ED00E007
:101C700034EF00E0424A22F00700424A106000229E
:101C8000404B5A60404A414B5A6000221A6001465C
:101C90003D4A4A601A460A6070472DE9F041044601
:101CA0004FF00008FFF70FFA3948006820B9FFF736
:101CB000E1FF01203649086044B1083404F0070010
:101CC00020B104F00700C0F108000444002C31D01A
:101CD0002D4884422ED22B4F3846056801E02F460E
:101CE0002D686868A04202D228680028F7D12748EA
:101CF00085421FD0386800F1080828683860686895
:101D0000001B102810D92E196868001B70606C60C9
:101D100071681C4800E00068026852688A42FAD381
:101D200002683260066000BF1A4968680968081ACC
:101D300018490860FFF720F94046BDE8F08170B50A
:101D400006463546B6B1083D2C46FFF7BCF961683A
:101D50000C4800E00068026852688A42FAD30268C0
:101D6000226004600B4960680968084409490860FA
:101D7000FFF702F970BD0748006870477047000020
:101D80006443002044000020F82B01004C00002098
:101D900058000020540000201FB50020374A384B5F
:101DA0001B68CDE901200093039003464FF4827233
:101DB00034A13548FEF785FF0020344A344B1B68B8
:101DC000CDE901200093039003464FF4827231A1C4
:101DD0003248FEF776FF0020314A324B1B68CDE9CE
:101DE000012000930390034640F28A222EA12F483F
:101DF000FEF767FF00200223CDE900300290034682
:101E00004FF482722AA103902E48FEF75AFF002059
:101E10000323CDE90030029003464FF482722AA1D9
:101E200003902D48FEF74DFF00BF0020FEF7E6FFB0
:101E3000FBE710B506F07AFD06F050F905F0CEFF8D
:101E400005F012FB04F04FFC10BD1FB5FFF7F1FFCA
:101E500000200123CDE90030029003464FF4827246
:101E60001EA10390AFF2CF00FEF72BFFFFF7A7FBF9
:101E70006420FFF786F900BFFEE700005C00002049
:101E8000740000206C6564007F88000864000020F6
:101E90007800002073636953656E64000F86000844
:101EA000680000207C000020434C49006B8600083D
:101EB00074656D7074757265546573745461736B79
:101EC00000000000ED73000874657374535650579A
:101ED0004D5461736B0000004174000853797374B2
:101EE000656D5F737461727400000000704700BF1D
:101EF000FEE700BFFEE700BFFEE700BFFEE770475A
:101F00000CB50020019000907648006840F48030C5
:101F10007449086000BF7348006800F40030009006
:101F20000198401C0190009818B90198B0F5A04F95
:101F3000F1D16C48006800F4003010B1012000902D
:101F400001E0002000900098012846D1654840300B
:101F5000006840F080506349403108606248006882
:101F600040F44040604908605E48083000685D49C0
:101F7000083108600846006840F4004008600846E0
:101F8000006840F4A05008605848091F0860081F06
:101F9000006840F08070091F086000BF5148006869
:101FA00000F000700028F9D040F205705049086038
:101FB0004C480830006820F003004A4908310860A6
:101FC0000846006840F00200086000BF454808303D
:101FD000006800F00C000828F8D10CBD10B5454889
:101FE000006840F47000434908603E48006840F0D3
:101FF00001003C49086000203A490831086039482E
:1020000000683D490840374908603C48091D0860A0
:10201000081F006820F48020091F08600020314953
:102020000C310860FFF76CFF4FF0006031498039D8
:10203000086010BD70B50020002202230024022198
:10204000284D08352D6805F00C0020B1042806D075
:10205000082834D107E02A4D2A4E356033E02A4D56
:10206000284E35602FE01F4D2D1D2D68C5F380547F
:102070001C4D2D1D2D6805F03F0154B1224DB5FBBF
:10208000F1F5184E361D3668C6F3881605FB06F2C4
:1020900009E01B4DB5FBF1F5124E361D3668C6F34F
:1020A000881605FB06F20F4D2D1D2D68C5F3014561
:1020B0006D1C6B00B2FBF3F5124E356003E0104D62
:1020C000104E356000BF00BF064D08352D68C5F3C2
:1020D00003150E4E705D0B4D2D68C540094E3560E1
:1020E00070BD0000003802400070004019544007E5
:1020F000003C024088ED00E0FFFFF6FE10300024B7
:102100000024F4008000002000127A0084000020E7
:102110000948804709480047FEE7FEE7FEE7FEE77B
:10212000FEE7FEE7FEE7FEE7FEE7FEE704480549B7
:10213000054A064B70470000DD1F000889010008B2
:10214000A0E00120A0E60120A0E20120A0E2012001
:1021500032490143324A1160704770B500210023B3
:102160000F22C4781CB32E4C246804F4E064C4F538
:10217000E064C4F30721C1F10404E3B20A414478E6
:102180009C40E1B28478144021430C07210E254C79
:1021900005786155047804F01F050124AC400578EA
:1021A0006D11AD0005F1E025C5F8004109E00478A6
:1021B00004F01F050124AC401B4D0678761145F84C
:1021C000264070BD194A0A400243154B1B1F1A6076
:1021D000704739B1124A121D12680243104B1B1D81
:1021E0001A6006E00E4A121D126882430C4B1B1D3A
:1021F0001A607047042808D14FF0E021096941F0C6
:1022000004014FF0E022116107E04FF0E02109697D
:1022100021F004014FF0E022116170470000FA053F
:102220000CED00E000E400E080E100E080FFFF1F33
:1022300010B50121080201F0F8FA00214FF4807076
:1022400001F0F3FA10BD30B50246002000235068BB
:10225000F84C20400D790C6844EA05242043506076
:102260009068F54C2040D1E903542C438D682C43F1
:102270004D7944EA450420439060D06A20F4700010
:102280000C7D641EE4B2234340EA0350D06230BDAB
:1022900000210160017141718160C1600161012112
:1022A000017570470021E54A1168E54A1140D0E9FF
:1022B00000231A4383681A43C3681A431143E14A4F
:1022C000C2F8041370470021016041608160C16061
:1022D000704721B1826842F00102826003E08268A7
:1022E00022F00102826070470A4600214168D64B05
:1022F00019401143416070474162826270470A464B
:102300000021416821F01F0111434160704738B13D
:10231000CA49096841F40001CA4AC2F8041306E038
:10232000C649096821F40001C64AC2F8041370477F
:1023300038B1C249096841F48001C24AC2F80413A5
:1023400006E0BE49096821F48001BE4AC2F80413C0
:102350007047F0B504460D4600200021092D11DD1F
:10236000E068A5F10A0606EB4607072606FA07F11C
:102370008843A5F10A0606EB460603FA06F1084370
:10238000E0600CE0206905EB4507072606FA07F137
:10239000884305EB450603FA06F108432061072A46
:1023A0000FDA606B561E06EB86071F2606FA07F14A
:1023B0008843561E06EB860605FA06F1084360635D
:1023C00022E00D2A0FDA206BD61F06EB86071F26A8
:1023D00006FA07F18843D61F06EB860605FA06F1D2
:1023E0000843206310E0E06AA2F10D0606EB8607C1
:1023F0001F2606FA07F18843A2F10D0606EB8606B2
:1024000005FA06F10843E062F0BD816841F08041C1
:1024100081607047014600208A6802F080420AB15C
:10242000012000E00020704721B1826842F4806200
:10243000826003E0826822F480628260704721B18A
:10244000826842F00202826003E0826822F00202A7
:102450008260704710B50A4600210023416821F4CC
:102460006041531E41EA4331416010BD21B14268D1
:1024700042F40062426003E0426822F4006242607B
:1024800070470146C86C80B270476C48001D0068F8
:10249000704721B1826842F48072826003E08268F2
:1024A00022F480728260704721B1826842F4007227
:1024B000826003E0826822F400728260704738B163
:1024C0005E49096841F400515E4AC2F8041306E00F
:1024D0005A49096821F400515A4AC2F80413704756
:1024E000F0B504461546002000220026092911DD1A
:1024F000E068A1F10A0707EB470C072707FA0CF27F
:102500009043A1F10A0707EB470703FA07F21043CC
:10251000E0600CE0206901EB410C072707FA0CF2A0
:10252000904301EB410703FA07F210432061A06BCF
:10253000C0F30156EF1C06F1010CA7EB0C0707EBEB
:10254000870C1F2707FA0CF29043EF1C06F1010CD1
:10255000A7EB0C0707EB870701FA07F21043A0630C
:10256000F0BD10B50A4600210023816B21F4401113
:10257000531E41EA0351816310BD08B50023009347
:102580000090009B0B440093009B1A6008BD0A4614
:102590000021816821F470211143816070470A464F
:1025A0000021816821F440111143816070478168E6
:1025B00041F4800181607047014600208A6802F47E
:1025C00080020AB1012000E00020704721B142687A
:1025D00042F48062426003E0426822F4806242601A
:1025E000704721B1426842F48052426003E0426881
:1025F00022F480524260704708B5024600200090E5
:10260000009201F12800009B184400900098006897
:1026100080B208BD10B50B460021D9B2012404FADE
:1026200001F11AB144680C43446002E044688C43F1
:10263000446010BDFFFEFFFCFDF7FFC00423014016
:10264000E030FCFF00200140FFFD3FFF024600207C
:1026500013680B400BB1012000E000207047CA4313
:102660000260704770B502460020002300240B1260
:10267000556801268E4005EA060415681D4015B10F
:102680000CB1012000E0002070BD00220A12D343EB
:102690000360704710B50446FE48844209D1012109
:1026A000480601F0B1F800214FF0007001F0ACF8DD
:1026B00008E00121880601F0A7F800214FF08060B2
:1026C00001F0A2F810BD30B50246002000231468C6
:1026D00024F002041460146844F00104146000E063
:1026E0005B1C546804F001041CB94FF6FF74A3424C
:1026F000F6D1546804F001040CB900206CE08C7928
:10270000012C04D1146844F08004146003E01468C0
:1027100024F080041460CC79012C04D1146844F0B6
:102720004004146003E0146824F0400414600C7A40
:10273000012C04D1146844F02004146003E01468F0
:1027400024F0200414604C7A012C04D1146844F065
:102750001004146003E0146824F0100414608C7AF0
:10276000012C04D1146844F00804146003E01468D8
:1027700024F008041460CC7A012C04D1146844F0CD
:102780000404146003E0146824F0040414608C78DA
:10279000A407CD7844EA05640D7944EA05444D79EF
:1027A00044EA05540D886D1E2C43D461146824F04E
:1027B00001041460002300E05B1C546804F0010471
:1027C0001CB14FF6FF74A342F6D1546804F0010423
:1027D0000CB1002000E0012030BD10B50021837A4B
:1027E000012202FA03F1AC4A126842F00102AA4B3C
:1027F0001A60A94A1C3212688A43A74B1C331A601C
:10280000027BCAB9A44A0C3212688A43A24B0C3329
:102810001A604288C38842EA03439F4A4032847A5E
:1028200042F834300288838842EA03439A4A4032AD
:10283000847A02EBC4025360027B012A19D1964AC2
:102840000C3212680A43944B0C331A604288038896
:1028500042EA0343904A4032847A42F83430C288D4
:10286000838842EA03438C4A4032847A02EBC402F2
:102870005360C27A3AB9884A121D12688A43864B5D
:102880001B1D1A6006E0844A121D12680A43824B1F
:102890001B1D1A60028932B97F4A143212688A43BA
:1028A0007D4B14331A600289012A06D17A4A143208
:1028B00012680A43784B14331A60427B012A06D10E
:1028C000754A1C3212680A43734B1C331A60724AF1
:1028D000126822F00102704B1A6010BD0021817154
:1028E000C171017241728172C1728170C170032124
:1028F0000171022141710121018070476649096817
:1029000041F00101644A11601146096843F60E72F4
:102910009143614A11601146096841EA0021116042
:102920001146096821F001011160704721B1026868
:1029300042F48032026003E0026822F480320260D6
:102940007047E1B1026842F0800202604FF4C27247
:10295000125842F480734FF4C27213504FF4CA728B
:10296000125842F480734FF4CA7213504FF4D2726B
:10297000125842F480734FF4D27213501BE0026875
:1029800022F0800202604FF4C272125822F4807367
:102990004FF4C27213504FF4CA72125822F480736B
:1029A0004FF4CA7213504FF4D272125822F480734B
:1029B0004FF4D2721350704710B50246002093684E
:1029C00003F08063B3F1806F00D110E0936803F0EF
:1029D0000063B3F1006F01D1012008E0936803F0B8
:1029E0008053B3F1805F01D1022000E0042004286D
:1029F00079D002F5C07303EB00131B6803F00104E8
:102A000002F5C07303EB00131C600B7A7BB94B7AA1
:102A10000C8843EA445302F5C07404EB00142468A4
:102A2000234302F5C07404EB0014236010E00B7A1A
:102A30004C6843EAC4034C7A234302F5C07404EBA8
:102A400000142468234302F5C07404EB00142360CF
:102A50008B7A03F00F038B7202F5C07303EB001344
:102A60005B6823F00F0402F5C07303EB00135C6096
:102A700002F5C07303EB00135B688C7A234302F505
:102A8000C07404EB001463608B7B1C064B7B44EA30
:102A9000034403E000640040006600400B7B44EA0E
:102AA0000323CC7A234302F5C07404EB0014A36023
:102AB0008B7C1C064B7C44EA03440B7C44EA0323D6
:102AC000CC7B234302F5C07404EB0014E36002F5F1
:102AD000C07303EB00131B6843F0010402F5C073DD
:102AE00003EB00131C6010BD10B50246002321B19A
:102AF000012907D002290FD109E09068F94C00EABA
:102B000004030BE09068F84C00EA040306E09068C8
:102B1000F64C00EA040301E0002300BF00BFF44CC0
:102B2000181BA34216D007DC83B16FF080601844F5
:102B300070B1022818D111E0B0F5007F10D0ED4C33
:102B4000204448B1B0F5003F0ED10BE002230DE068
:102B500000230BE0002309E0002307E0012305E048
:102B6000012303E0012301E0002300BF00BFD8B22E
:102B700010BD21B1012907D002290FD109E08268D7
:102B800042F0800282600AE0826842F40042826081
:102B900005E0826842F40002826000E000BF00BFEE
:102BA000704710B500F5D87303EB01131B6803F0F1
:102BB00004031372137A53B900F5D87303EB0113AE
:102BC0001B6840F2FF7404EA5353136009E000F5F8
:102BD000D87303EB01131B686FF0604404EAD3035E
:102BE000536000F5D87303EB01131B6803F0020375
:102BF000537200F5D87303EB01135B6803F00F0306
:102C0000937200F5D87303EB01135B681B0AD3744E
:102C100000F5D87303EB01139B68D37200F5D873EA
:102C200003EB01139B681C0A147300F5D87303EBC4
:102C300001139B681C0C547300F5D87303EB01134C
:102C40009B681B0E937300F5D87303EB0113DB68CD
:102C5000D37300F5D87303EB0113DB681C0A1474FB
:102C600000F5D87303EB0113DB681C0C547400F5FA
:102C7000D87303EB0113DB681B0E937421B9C3688F
:102C800043F02003C36003E0036943F020030361C2
:102C900010BD21B9C26842F02002C26003E002699F
:102CA00042F02002026170470246002019B9D36841
:102CB00003F0030006E0012903D1136903F00300C8
:102CC00000E00020704710B502460B4600204FF68A
:102CD000FF71BBB9146824F0020444F001041460CD
:102CE00000E0491E546804F00304012C01D00029BF
:102CF000F7D1546804F00304012C01D0002032E025
:102D0000012030E0012B13D1146824F00304146077
:102D100000E0491E546804F003040CB10029F8D106
:102D2000546804F003040CB100201CE001201AE0F8
:102D3000022B17D1146824F0010444F0020414603B
:102D400000E0491E546804F00304022C01D000295D
:102D5000F7D1546804F00304022C01D0002002E0F3
:102D6000012000E0002010BD014600200A6822F08A
:102D7000010242F002020A604A6802F00302022ADB
:102D800000D10120704701464FF6FF7200200B680A
:102D900023F002030B6000E0521E4B6803F00203B5
:102DA000022B01D1002AF7D14B6803F00203022B5A
:102DB00000D001207047014600208A6902F07000AF
:102DC0007047014600208A69100E704701460020B6
:102DD0008A69C2F3074070471AB143690B434361E4
:102DE00002E043698B434361704710B502460020FF
:102DF00001F4700343B19369C1F3130423400BB191
:102E000001202DE000202BE001F0807343B15368D6
:102E1000C1F3130423400BB1012021E000201FE087
:102E200001F0006343B19368C1F3130423400BB175
:102E3000012015E0002013E001F0007343B1D368D6
:102E4000C1F3130423400BB1012009E0002007E087
:102E50001369C1F3130423400BB1012000E00020EB
:102E600010BD0022244B994202D10023836111E05E
:102E7000C1F3130201F000730BB1C2600AE001F06C
:102E800080630BB1026105E001F000630BB1826069
:102E900000E0426070470246002002EA01030BB1E5
:102EA000012000E00020704770B504460D46002662
:102EB00060692840002872D0B5F5807F69D01DDC9C
:102EC000082D42D006DC012D2DD0022D31D0042D4D
:102ED0007FD134E0102D3ED0202D42D0402D78D12E
:102EE00045E0000003000004000300080000031098
:102EF000000100080001FFF77000F030B5F5004F49
:102F000061D009DCB5F5007F4AD0B5F5806F4DD0B2
:102F1000B5F5006F5DD150E0B5F5803F2DD0B5F52A
:102F2000003F56D12FE0A0685549FFF7B4FF064691
:102F300051E0E0680321FFF7AEFF06464BE0E06892
:102F40000821FFF7A8FF064645E0E0681021FFF7DB
:102F5000A2FF06463FE020690321FFF79CFF0646DB
:102F600039E020690821FFF796FF064633E0206923
:102F70001021FFF790FF06462DE060680821FFF75B
:102F80008AFF064627E060681021FFF784FF0646A7
:102F900021E0A0690121FFF77EFF06461BE01BE050
:102FA000A0690221FFF777FF064614E0A06904211B
:102FB000FFF771FF06460EE00BE0A0697021FFF7F6
:102FC0006AFF064607E060680421FFF764FF0646D3
:102FD00001E0002600BF00E00026304670BDB1F5DC
:102FE000007F3AD00FDC202928D006DC01291CD034
:102FF00004291DD0082940D11DE0402921D0B1F578
:10300000807F3AD126E0B1F5004F31D006DCB1F532
:10301000806F25D0B1F5006F2FD124E0B1F5803F4E
:1030200012D0B1F5003F28D111E0154A826025E0A9
:103030000822C26022E01022C2601FE00822026162
:103040001CE01022026119E00822426016E0102202
:10305000426013E00422426010E0042242600DE06E
:10306000042242600AE0002282610422426005E0FC
:10307000002282610422426000E000BF00BF70476E
:103080000101010010B504469848844208D101218D
:10309000084600F086FB0021012000F082FB76E06C
:1030A0009348844208D10121022000F07AFB0021DC
:1030B000022000F076FB6AE08E48844208D10121AC
:1030C000042000F06EFB0021042000F06AFB5EE0AB
:1030D0008948844208D10121082000F062FB0021C8
:1030E000082000F05EFB52E08448844208D10121B0
:1030F000102000F056FB0021102000F052FB46E0AB
:103100007F48844208D10121202000F04AFB0021A1
:10311000202000F046FB3AE07A48844208D10121A1
:10312000402000F03EFB0021402000F03AFB2EE062
:103130007548844208D10121802000F032FB002133
:10314000802000F02EFB22E07048844208D101214B
:10315000801500F026FB0021A01500F022FB16E0F0
:103160006B48844208D10121401500F01AFB002170
:10317000601500F016FB0AE06648844207D1012181
:10318000001500F00EFB0021201500F00AFB10BD19
:10319000F0B50A4600210023002400BF3DE00125D0
:1031A00005FA01F3156805EA03049C4234D1056869
:1031B0004F000326BE40B543056015794E00B5406B
:1031C0000668354305601579012D02D01579022D69
:1031D00016D185684F000326BE40B54385605579FA
:1031E0004E00B540866835438560456801268E40AF
:1031F000B5434560456896798E40B6B23543456023
:10320000C5684F000326BE40B543C560D5794E0062
:10321000B540C6683543C560491C1029BFD3F0BD11
:103220004FF6FF7101600021017141718171C1711F
:10323000704708B54FF480320092009A0A4300921A
:10324000009AC261C161009AC261C2690092C269FA
:10325000009208BD0246002013690B400BB101200B
:1032600000E0002070470146086980B270470246BE
:10327000002053690B400BB1012000E00020704793
:103280000146486980B270470183704741837047A7
:103290000AB1018300E04183704741617047426990
:1032A0004A4042617047F0B5002300244D07ED0EFF
:1032B00002FA05F3CE1000F1200555F826504E070E
:1032C000F70E0F26BE40B543CF1000F1200646F89A
:1032D0002750CE1000F1200555F8265045EA03048A
:1032E000CE1000F1200545F82640F0BD0000024058
:1032F0000004024000080240000C0240001002409E
:103300000014024000180240001C0240002002404D
:103310000024024000280240F948006840F0010003
:10332000F74908600020F64908310860F448006851
:10333000F4490840F2490860F348091D0860F34861
:10334000EF4984310860F0481038091D0860EC48E6
:10335000006820F48020EA4908600020E8490C3128
:103360000860E7498C31086070470021E44A921CEC
:10337000117011460870704710B5014600220023F5
:1033800000204A11012A02D1DD4C236808E0022AFC
:1033900003D1DB4C7034236802E0D94C74342368C9
:1033A00001F01F02012494401C400CB1012000E0F8
:1033B000002010BD38B5002000900024002500BF7B
:1033C0003120FFF7D9FF05460098401C0090009877
:1033D000B0F5A04F01D0002DF2D03120FFF7CCFF87
:1033E00008B1012400E00024204638BD0146002039
:1033F000C34A106820F0F80040EAC100106070472E
:10340000C349086070470021BD4A703211701170C5
:10341000012802D004280AD104E00121B84A703200
:10342000117005E00521B64A7032117000E000BF4E
:1034300000BF7047B7490860704770B5049C41EA07
:1034400082150126C6EB530645EA0645054345EAC3
:103450000465AB4E361D356070BDAD4908667047DA
:10346000820142EA0172A64B84331A607047A84970
:103470008866704710B5830143EA016343EA02732B
:103480009F4C8834236010BDA14908677047A0494C
:10349000C864704702460020994B0833186820F032
:1034A000EC6042EA01031843954B083318607047FB
:1034B00002460020924B0833186820F0784042EA18
:1034C000010318438E4B08331860704701460020F3
:1034D0008B4A0832106820F00300084310607047E0
:1034E00087480830006800F00C0070470146002053
:1034F000834A0832106820F0F000084310607047DB
:10350000014600207E4A0832106820F4E05008434B
:103510001060704701460020794A0832106820F494
:10352000604040EAC10010607047F0B50021002201
:103530000024022500260223714F08373F6807F058
:103540000C0121B1042905D0082937D105E0724FBB
:10355000076036E0714F076033E0694F3F1D3F68F9
:10356000C7F38056664F3F1D3F6807F03F036EB1BB
:103570006A4FB7FBF3F7DFF888C10CF1040CDCF8F5
:1035800000C0CCF3881C07FB0CF40CE0624FB7FBC7
:10359000F3F7DFF86CC10CF1040CDCF800C0CCF3DD
:1035A000881C07FB0CF4564F3F1D3F68C7F30147CB
:1035B0007F1C7D00B4FBF5F7076002E0564F076003
:1035C00000BF00BF4E4F08373F6807F0F001090900
:1035D000534F7A5C0768D7404760494F08373F68C8
:1035E00007F4E051890A4E4F7A5C4768D7408760FC
:1035F000434F08373F6807F46041490B484F7A5CF6
:103600004768D740C760F0BD002100F44072B2F5B2
:10361000407F0AD13A4A0832116821F4F811414A30
:1036200002401143364A08321160354A703212683E
:10363000C0F30B031A43324B70331A60704735499D
:10364000443908607047334940390860704736494B
:103650000860704701460020294A8C32106820F02B
:103660001F004A1E1043264A8C32106070470146E4
:103670000020234A8C32106820F4F8504A1E40EA99
:1036800002201F4A8C3210607047014600201C4AFD
:103690008C32106820F440100843106070470146D7
:1036A0000020174A8C32106820F440000843106054
:1036B000704701460020124A8C32106820F44030D6
:1036C00008431060704719490860704739B10C4AC7
:1036D0003032126802430A4B30331A6006E0084A5F
:1036E000303212688243064B30331A607047F9B1AA
:1036F000034A343212680243014B34331A601CE02F
:1037000000380240FFFFF6EA1030002400300020AD
:1037100000004742800E47420024F40000127A0065
:1037200094000020FFFCFF0F5C014742E01147427C
:103730008F4A126882438E4B1A60704739B18C4AA7
:10374000121D126802438A4B1B1D1A6006E0884A4C
:10375000121D12688243864B1B1D1A60704739B1D7
:10376000834A0C3212680243814B0C331A6006E024
:103770007F4A0C32126882437D4B0C331A607047CB
:1037800039B17B4A103212680243794B10331A6008
:1037900006E0774A103212688243754B10331A6084
:1037A000704739B1724A243A12680243704B243B85
:1037B0001A6006E06E4A243A126882436C4B243B3E
:1037C0001A60704739B16A4A203A12680243684B5E
:1037D000203B1A6006E0664A203A12688243644B36
:1037E000203B1A60704739B1614A1C3A12680243A3
:1037F0005F4B1C3B1A6006E05D4A1C3A126882432C
:103800005B4B1C3B1A60704739B1594A143A126835
:103810000243574B143B1A6006E0554A143A1268AB
:103820008243534B143B1A60704739B1504A103AE7
:10383000126802434E4B103B1A6006E04C4A103AA5
:10384000126882434A4B103B1A60704739B1484AAC
:103850001C3212680243464B1C331A6006E0444A8D
:103860001C3212688243424B1C331A60704739B1D4
:103870003F4A2032126802433D4B20331A6006E073
:103880003B4A203212688243394B20331A6070471A
:1038900039B1374A243212680243354B24331A6057
:1038A00006E0334A243212688243314B24331A60D3
:1038B000704739B12E4A2C32126802432C4B2C33FC
:1038C0001A6006E02A4A2C3212688243284B2C33B5
:1038D0001A60704739B1264A303212680243244BCD
:1038E00030331A6006E0224A303212688243204B9D
:1038F00030331A607047012808D11D493C310968EE
:1039000041F008011A4A3C32116007E018493C3185
:10391000096821F00801164A3C321160704739B13C
:10392000134A273A12780243114B273B1A7006E0DC
:103930000F4A273A127882430D4B273B1A70704783
:103940000B484030006840F0807009494031086001
:10395000704701460020064A283A12680A400AB118
:10396000012000E0002070470149263908707047A7
:103970003438024010B50446FB48844208D1012186
:103980008014FFF752FF0021A014FFF74EFF3CE028
:10399000F648844208D101210014FFF735FF0021C9
:1039A0002014FFF731FF30E0F148844208D10121B3
:1039B000C013FFF729FF0021E013FFF725FF24E0E4
:1039C000EC48844208D101214014FFF72EFF00216A
:1039D0006014FFF72AFF18E0E748844209D101216B
:1039E0000805FFF722FF00214FF48010FFF71DFFAD
:1039F0000BE0E248844208D101214805FFF715FF9A
:103A000000214FF40010FFF710FF10BD10B5002289
:103A1000028802F441520B884C8823438C8823434C
:103A2000CC8823430C8923434C8923438C8923432B
:103A3000CC8923431A430280838B4FF2FF742340C7
:103A400083830B8A038210BD2DE9F04F00250223EA
:103A500000244FF0010900220026002794469046DA
:103A6000B0F81CA04FF2400B0AEA0B0AA0F81CA009
:103A70004FF0020AA0F820A0858BD1F808A0BAF177
:103A8000020F01D100BF82E0B1F804A0BAF1000F2B
:103A900002D14FF0010901E04FF00209DFF8E0A286
:103AA000DAF800A00AF4000ABAF1000F09D0DFF832
:103AB000D0A2DAF800A02AF4000ADFF8C4B2CBF8EA
:103AC00000A0DFF8BCA20AF17C0ADAF800A0CAF371
:103AD000881CDFF8ACA20AF17C0ADAF800A0CAF36D
:103AE0000278DFF89CA2AAF1040ADAF800A00AF032
:103AF0003F07DFF88CA2AAF1040ADAF800A00AF462
:103B0000800ABAF5800F08D1DFF878A2BAFBF7FA7D
:103B10000AFB0CFABAFBF8F607E0DFF86CA2BAFB76
:103B2000F7FA0AFB0CFABAFBF8F6B1F806A0BAF5F8
:103B3000007F0ED14FEA162A0AEB8A0A4FEA4A0A98
:103B4000D1F808B0BAFBFBFA0AF1050A1FFA8AF2AB
:103B50000FE04FEA491AB6FBFAFA0AEB8A0A4FEA73
:103B60004A0AD1F808B0BAFBFBFA0AF1050A1FFAB3
:103B70008AF24FF00A0AB2FBFAF202F00104A2EB59
:103B8000040ACAF34F034FF6FF7A0AEA0424022B11
:103B900001DBFF2B01DD02230024B1F806A04AEA75
:103BA000040A4AEA030AA0F820A0B1F804A0B1F878
:103BB0000CB04AEA0B0AB1F802B04AEA0B0AB1F8B3
:103BC00000B04AEA0B0A4AF4006A4AEA050585830E
:103BD000BDE8F08F0021018041808180C18001819A
:103BE00041818181C18107210182704700210180CB
:103BF00041808180C18002218160002181817047E4
:103C000021B1028842F04002028004E002884FF6AF
:103C1000BF731A400280704721B1828B42F48062E8
:103C2000828304E0828B4FF6FF331A408283704711
:103C300002884FF2FF731A40028002880A43028012
:103C40007047B1F5804F04D1028842F4804202806F
:103C500004E002884BF6FF731A40028070474FF66B
:103C6000FF62914204D0028842F48072028004E034
:103C700002884FF6FF631A400280704721B18288A4
:103C800042F00402828004E082884FF6FB731A40FF
:103C90008280704721B1828842F01002828004E065
:103CA00082884FF6EF731A408280704730B5002249
:103CB0000023848B4FF240052C408483022404842B
:103CC000828B0C88B4F5007F01D00C8814B94FF4B6
:103CD000807308E00C88B4F5407F03D00C88B4F5FD
:103CE000807F00D100238C888D892C434D882C4304
:103CF0001C4344F400642243828330BD014688891A
:103D000070478181704721B1028842F400520280DD
:103D100004E002884DF6FF731A4002807047018864
:103D200041F480510180704702460020012901D0F2
:103D3000108B00E0908A70470146088A70471AB1DC
:103D400083880B43838002E083888B4383807047A2
:103D500030B5002400230C110125A540ABB2AAB157
:103D600085881D43858014E0003001400038004004
:103D7000003C00400034014000500140005401402C
:103D80000838024000127A000024F40085889D4320
:103D9000858030BD0246002013890B400BB1012005
:103DA00000E000207047CA4302817047F0B5024628
:103DB000002000240023002501F00F070126BE404B
:103DC000B4B20B1101269E40B3B2968806EA0305F1
:103DD0001689264016B10DB1012000E00020F0BD8B
:103DE00010B5002201F00F040123A3409AB2D3437F
:103DF000038110BD10B50446FE48844208D101215C
:103E00000846FFF712FD00210120FFF70EFD9DE09F
:103E1000B4F1804F08D101210846FFF7F5FC0021DD
:103E20000120FFF7F1FC91E0F348844208D1012121
:103E30000220FFF7E9FC00210220FFF7E5FC85E006
:103E4000EE48844208D101210420FFF7DDFC002167
:103E50000420FFF7D9FC79E0E948844208D1012128
:103E60000820FFF7D1FC00210820FFF7CDFC6DE012
:103E7000E448844208D101211020FFF7C5FC00214D
:103E80001020FFF7C1FC61E0DF48844208D1012126
:103E90002020FFF7B9FC00212020FFF7B5FC55E0FA
:103EA000DA48844208D101210220FFF7BEFC00213C
:103EB0000220FFF7BAFC49E0D548844209D101212C
:103EC0000804FFF7B2FC00214FF48030FFF7ADFC8F
:103ED0003CE0D048844209D101214804FFF7A5FC09
:103EE00000214FF40030FFF7A0FC2FE0CA488442C5
:103EF00009D101218804FFF798FC00214FF48020AC
:103F0000FFF793FC22E0C548844208D101214020FC
:103F1000FFF77AFC00214020FFF776FC16E0C0484E
:103F2000844208D101218020FFF76EFC002180200F
:103F3000FFF76AFC0AE0BB48844207D101218015E3
:103F4000FFF762FC0021A015FFF75EFC10BD002208
:103F50000288A84B98420ED0AC4B98420BD0B0F1DF
:103F6000804F08D0A44B984205D0A44B984202D071
:103F7000A34B984204D14FF68F731A404B881A43D3
:103F8000A04B984207D0A04B984204D04FF6FF4375
:103F90001A400B891A4302804B68C3620B88038561
:103FA000944B984202D0994B984201D18B7A038668
:103FB0000123838270474FF0FF314160002101806F
:103FC00001814180817270470185828270470A4673
:103FD000002101884FF68F7319401143018070470B
:103FE00041627047C16270470146486A70470146A6
:103FF000088D704721B1028842F00202028004E07D
:1040000002884FF6FD731A400280704721B1028882
:1040100042F00402028004E002884FF6FB731A406B
:104020000280704721B1028842F08002028004E0E1
:1040300002884FF67F731A400280704702884FF65D
:10404000F7731A40028002880A4302807047028890
:104050004FF6FF431A40028002880A4302807047ED
:1040600021B1028842F00102028004E002884FF68A
:10407000FE731A400280704770B5002400220023AE
:10408000058C4FF6FE7635400584028C8388048BC0
:104090004FF68F752C40B51E2C400D882C43751E95
:1040A0002A408D892A434D882A43524DA84202D086
:1040B000564DA84213D14FF6F7752A40CD892A43B1
:1040C0004FF6FB752A408D882A434FF6FF652B403B
:1040D0004FF6FF552B400D8A2B434D8A2B4383808F
:1040E00004838D684563028470BD70B5002400228E
:1040F0000023058C4FF6EF7635400584028C8388CB
:10410000048B48F6FF752C404FF6FF452C400D8878
:104110004FF6FF7606EA05252C434FF6DF752A4059
:104120008D8906EA05152A434D8806EA05152A43B6
:10413000304DA84202D0354DA8421DD14FF67F75B3
:104140002A40CD894FF6FF7606EA05152A434FF639
:10415000BF752A408D8806EA05152A434FF6FF35BC
:104160002B404FF2FF752B400D8A06EA85052B4345
:104170004D8A06EA85052B43838004838D68856319
:10418000028470BD70B5002400220023058C4FF618
:10419000FF6635400584028C8388848B4FF68F75CB
:1041A0002C404FF6FC752C400D882C434FF6FF55E4
:1041B0002A408D894FF6FF7606EA05252A434D8869
:1041C00006EA05252A430B4DA84202D00F4DA8420E
:1041D00038D14FF2FF752A40CD894FF6FF7606EAB7
:1041E00005252A434FF6FF352A408D8806EA052526
:1041F0002A4319E00000014000040040000800408C
:10420000000C004000100040001400400004014079
:1042100000400140004401400048014000180040B7
:10422000001C0040002000404EF6FF752B404DF66C
:10423000FF752B400D8A06EA05152B434D8A06EAC9
:1042400005152B43838084838D68C563028470BD0C
:1042500070B5002200230024058C4EF6FF76354011
:104260000584038C8488828B48F6FF752A404FF6BC
:10427000FF452A400D884FF6FF7606EA05252A43BA
:104280004DF6FF752B408D8906EA05352B434D8889
:1042900006EA05352B43FE4DA84202D0FD4DA8424B
:1042A00008D14BF6FF752C400D8A4FF6FF7606EAD3
:1042B00085152C43848082838D680564038470BDDA
:1042C000002101804180818081608181C1810182E2
:1042D0004182704770B5034600200024184618300C
:1042E00001258D40ACB21D8CA5431D8409B1082960
:1042F0000AD100EB610005684FF68F763540056006
:104300000568154305600FE00D1FC5F34E052844F1
:10431000056848F6FF763540056005684FF6FF767C
:1043200006EA02263543056070BD4163704781632C
:104330007047C1637047016470470A460021018BD2
:104340004FF68F7319401143018370470A460021CD
:10435000018B48F6FF7319404FF6FF7303EA0223FF
:104360001943018370470A460021818B4FF68F73F2
:1043700019401143818370470A460021818B48F61A
:10438000FF7319404FF6FF7303EA02231943818339
:1043900070470A460021018B4FF6F773194011430D
:1043A000018370470A460021018B4FF2FF731940C9
:1043B0004FF6FF7303EA02231943018370470A464D
:1043C0000021818B4FF6F7731940114381837047A9
:1043D0000A460021818B4FF2FF7319404FF6FF739D
:1043E00003EA02231943818370470A460021018BA7
:1043F0004FF6FB7319401143018370470A460021B1
:10440000018B4FF6FF3319404FF6FF7303EA022387
:104410001943018370470A460021818B4FF6FB73D5
:1044200019401143818370470A460021818B4FF662
:10443000FF3319404FF6FF7303EA022319438183C8
:1044400070470A460021018B4FF67F7319401143D4
:10445000018370470A460021018BC1F30E014FF61C
:10446000FF7303EA02231943018370470A460021C0
:10447000818B4FF67F7319401143818370470A4641
:104480000021818BC1F30E014FF6FF7303EA022373
:104490001943818370470A460021018C4FF6FD7352
:1044A00019401143018470470A460021018C4FF6E0
:1044B000F77319401143018470470A460021018CAB
:1044C0004FF6DF7319404FF6FF7303EA02131943E7
:1044D000018470470A460021018C4FF67F73194012
:1044E0004FF6FF7303EA02131943018470470A462B
:1044F0000021018C4FF6FF5319404FF6FF7303EA7A
:1045000002231943018470470A460021018C4FF2AF
:10451000FF7319404FF6FF7303EA02231943018426
:1045200070470A460021018C4DF6FF7319404FF683
:10453000FF7303EA023319430184704730B5002347
:1045400001248C40A3B2048C9C430484048C02FAA2
:1045500001F5ADB22C43048430BD30B500230424F2
:104560008C40A3B2048C9C430484048C02FA01F5B1
:10457000ADB22C43048430BD828B4FF2FF331A401E
:104580008283828B4FF6FF7303EA01231A438283EF
:104590007047F0B50C461546002100220026078C16
:1045A0004EF6FF7C07EA0C070784818B028C4FF6DE
:1045B000FF7707EA043640F6FF4739404FF6FF77AA
:1045C00007EA052739434FF6FF7707EA03373943F0
:1045D00045F6FF773A4046F480573A438183028498
:1045E000F0BD828B4FF6F3731A408283828B0A43AD
:1045F00082837047F0B50C46154600210022002644
:10460000078C4FF6FF6C07EA0C070784818B028C3E
:104610004FF6FF7707EA04264FF60C7739404FF63E
:10462000FF7707EA03172F4339434FF2FF573A400A
:1046300046F480773A4381830284F0BD028B4FF2C7
:10464000FF331A400283028B4FF6FF7303EA012304
:104650001A4302837047F0B50C461546002100222C
:104660000026078C4FF6EF7C07EA0C070784018BC6
:10467000028C4FF6FF7707EA041640F6FF473940F1
:104680004FF6FF7707EA033739434FF6FF7703E02A
:10469000000001400004014007EA052739434FF6B6
:1046A0005F773A4046F010073A4301830284F0BD39
:1046B000028B4FF6F3731A400283028B0A43028384
:1046C0007047F0B50C46154600210022068C4FF6C7
:1046D000FE773E400684018B028C4FF60C7631400B
:1046E0007E1C06EA03162E4331434FF6F576324020
:1046F00044F00106324301830284F0BD70B50546E3
:104700000C46208850B92389A28861882846FFF783
:10471000D8FFE1882846FFF7CBFF25E02088042852
:104720000AD12389A28861882846FFF794FFE1888F
:104730002846FFF783FF17E0208808280AD123893D
:10474000A28861882846FFF755FFE1882846FFF7D1
:1047500048FF09E02389A28861882846FFF719FFEE
:10476000E1882846FFF708FF70BD002101804180E5
:10477000012181800021C180018170472DE9F04134
:1047800005460C4600260127608808B9022600E08D
:104790000026A088012801D1022700E001272088F7
:1047A000A0B92389A28861882846FFF78AFFE1889B
:1047B0002846FFF77DFF23893A4631462846FFF712
:1047C0004AFFE1882846FFF739FF13E02389A288D2
:1047D00061882846FFF73FFFE1882846FFF72EFF54
:1047E00023893A4631462846FFF76BFFE188284681
:1047F000FFF75EFFBDE8F0810146486B7047014658
:10480000886B70470146C86B70470146086C70475B
:104810000A884B881A438B881A43CB881A430B8922
:104820001A434B891A438B891A43A0F844207047D6
:104830000021018041808180C1800181418181818D
:10484000704731B1B0F8442042F40042A0F844204F
:1048500005E0B0F84420C2F30E02A0F844207047EF
:1048600021B1828842F00402828004E082884FF6FF
:10487000FB731A408280704721B1828842F00102A6
:10488000828004E082884FF6FE731A40828070476F
:104890001AB183890B43838102E083898B4383812F
:1048A00070478182704702460020138A0B400BB18B
:1048B000012000E000207047CA430282704730B5F3
:1048C0000246002000230024158A05EA0103958989
:1048D00005EA010413B10CB1012000E0002030BD55
:1048E000CA430282704741EA0203A0F84830704789
:1048F0001AB183890B43838102E083898B438381CF
:10490000704721B1828842F00802828004E08288E8
:104910004FF6F7731A408280704701894FF6F8729C
:104920001140018170470A46002101894FF68F73BB
:10493000194011430181704730B504460D462946A0
:104940002046FFF7F0FF208940F00700208130BDAE
:104950002DE9F04104460D4616461F46602D06D14E
:104960003B46012231462046FFF775FE05E03B46F7
:10497000012231462046FFF7A4FE29462046FFF7D4
:10498000D2FF208940F007002081BDE8F08130B5DA
:104990000C4600210189C9B24FF6FF7505EA0325CF
:1049A000154325432943018130BD2DE9F0410546DA
:1049B0000E4617469846002443463A463146284656
:1049C000FFF7E5FF2C894FF6F870044044F0070428
:1049D0004FF68F70044044F070042C81BDE8F081E4
:1049E000F0B504460D4616461F463B46324629465C
:1049F0002046FFF7CCFF208940F480402081F0BDA5
:104A000082884FF68F731A40828082880A438280A0
:104A1000704702894FF6F8731A40028102890A43EF
:104A20000281704702894FF67F731A400281028922
:104A30000A4302817047F0B50C4615461E46002118
:104A4000002200230189028B038C4FF6F87739404E
:104A500021434FF6FC473A4040F201173A434FF6E4
:104A6000DD773B404FF6FF7707EA06172F433B43BE
:104A7000018102830384F0BD21B1828842F080026B
:104A8000828004E082884FF67F731A4082807047EC
:104A9000A0F850107047000010B50446FA48844250
:104AA00008D101211020FEF7C0FE00211020FEF7E2
:104AB000BCFE57E0F548844209D101214804FEF7C5
:104AC000A3FE00214FF40030FEF79EFE4AE0F048BE
:104AD000844209D101218804FEF796FE00214FF49B
:104AE0008020FEF791FE3DE0EA48844209D1012191
:104AF000C804FEF789FE00214FF40020FEF784FE73
:104B000030E0E548844209D101210805FEF77CFE2A
:104B100000214FF48010FEF777FE23E0DF48844247
:104B200008D101212020FEF780FE00212020FEF781
:104B30007CFE17E0DA48844209D101218807FEF79C
:104B400063FE00214FF08040FEF75EFE0AE0D5488C
:104B5000844207D101214005FEF756FE0021600581
:104B6000FEF752FE10BD2DE9FF4705460E46002414
:104B7000A14600BFA046B08900B100BF2C8A24F432
:104B80004054F08804432C82AC8941F20C60844389
:104B9000B08831890843718908430443AC81AC8AE9
:104BA00024F44074B0890443AC826846FEF7BDFC2F
:104BB000B548854202D0B948854202D1DDF80C9053
:104BC00001E0DDF80890A88900F4004040B109EB4D
:104BD000C90000EB091031684900B0FBF1F707E0AC
:104BE00009EBC90000EB091031688900B0FBF1F74F
:104BF0006420B7FBF0F004012009642101FB107868
:104C0000A88900F4004040B1322000EBC800B0FB9E
:104C1000F1F000F00700044308E0322000EB081038
:104C20006421B0FBF1F000F00F0004432C81BDE8DB
:104C3000FF874FF41651016000218180C1800181FE
:104C40000C21418100218181704710B5024600206E
:104C5000108A20F470600B884C8823438C8823438F
:104C6000CC8823431843108210BD0021018041806D
:104C70008180C180704721B1828942F400528281D3
:104C800004E082894DF6FF731A4082817047028BDF
:104C900002F47F420283028B0A430283704721B1F0
:104CA000828942F40042828103E08289C2F30E02CB
:104CB0008281704721B1828A42F40062828204E0DC
:104CC000828A4FF2FF731A4082827047C1F3080252
:104CD0008280704701468888C0F308007047028AC6
:104CE0004FF6F0731A400282028A0A43028270472A
:104CF00021B1828942F00202828104E082894FF66A
:104D0000FD731A408281704782894FF2FF731A4007
:104D1000828182890A4382817047028A4FF6DF735B
:104D20001A400282028A0A430282704721B1028A33
:104D300042F48042028204E0028A4BF6FF731A407A
:104D400002827047818941F001018181704721B160
:104D5000828A42F00802828204E0828A4FF6F77368
:104D60001A4082827047028BD2B20283028B42EADF
:104D700001220283704721B1828A42F0200282829E
:104D800004E0828A4FF6DF731A408282704721B1B5
:104D9000828A42F01002828204E0828A4FF6EF7328
:104DA0001A4082827047828A4FF6FB731A408282D1
:104DB000828A0A438282704721B1828A42F00202CB
:104DC000828204E0828A4FF6FD731A408282704725
:104DD0001AB1838A0B43838202E0838A8B438382E6
:104DE0007047F0B50346002400260025002040F659
:104DF0006A17B94200D100BF1846C1F3421401F04E
:104E00001F06012707FA06F5012C01D10C3004E03A
:104E1000022C01D1103000E014301AB107682F4382
:104E2000076002E00768AF430760F0BD024600205C
:104E3000B1F5007F00D100BF13880B400BB10120FA
:104E400000E00020704701F40072B2F5007F00D14D
:104E500000BFCA430280704770B502460024002399
:104E60000025002040F66A16B14200D100BFC1F310
:104E7000421501F01F03012606FA03F3012D13D199
:104E80009689334017E000000010014000440040C4
:104E900000480040004C0040005000400014014019
:104EA00000780040007C0040022D02D1168A334079
:104EB00001E0968A33400C12012606FA04F41688A3
:104EC000344013B10CB1012000E0002070BD10B5DA
:104ED0000022002340F66A14A14200D100BF0A124A
:104EE00001249440A3B2DC43048010BD014600209D
:104EF00001E0491C401C0A78202A02D00A78002AC6
:104F0000F7D170472DE9F0412DED0C8B06460025B9
:104F1000A84600249FEDF80AB0EE408A00273046EC
:104F200003F0E0FD054600BF05E0305D2E2801D10D
:104F3000A5EB0408641CAC42F7DB6C1EC7E1A5EBD3
:104F40000800401E071B002F00DA7F1C305D2D3843
:104F50000D287DD2DFE800F0F1F07C070E3A669470
:104F6000C0F2EEEDEC009FEDE40A38EE000AB0EE80
:104F7000408AAAE1384605F09CF841EC1D0BB0EEE2
:104F80004D1AF0EE6D1A9FEDDD0B03F0E5FEB0EE6D
:104F900040CAF0EE60CA9FEDDB0B53EC102B51ECD6
:104FA0001C0B05F0EDF841EC1A0B18EE100A05F099
:104FB000DDFB41EC1B0B53EC1A2B04F037FE41ECEC
:104FC000190B04F001FE08EE100A7EE1384605F0E8
:104FD00070F841EC1D0BB0EE4D1AF0EE6D1A9FED1E
:104FE000C70B03F0B9FEB0EE40CAF0EE60CA9FED09
:104FF000C70B53EC102B51EC1C0B05F0C1F841EC26
:105000001A0B18EE100A05F0B1FB41EC1B0B53EC28
:105010001A2B04F00BFE41EC190B04F0D5FD08EE41
:10502000100A52E1384605F044F841EC1D0BB0EE91
:105030004D1AF0EE6D1A9FEDB10B03F08DFEB0EE40
:1050400040CAF0EE60CA9FEDB30B53EC102B00E0AA
:105050002CE151EC1C0B05F093F841EC1A0B18EE07
:10506000100A05F083FB41EC1B0B53EC1A2B04F0E8
:10507000DDFD41EC190B04F0A7FD08EE100A24E158
:10508000384605F016F841EC1D0BB0EE4D1AF0EE67
:105090006D1A9FED9A0B03F05FFEB0EE40CAF0EE82
:1050A00060CA9FED9E0B53EC102B51EC1C0B05F0CE
:1050B00067F841EC1A0B18EE100A05F057FB41ECAB
:1050C0001B0B53EC1A2B04F0B1FD41EC190B04F04F
:1050D0007BFD08EE100AF8E0384604F0EAFF41ECE8
:1050E0001D0BB0EE4D1AF0EE6D1A9FED840B03F020
:1050F00033FEB0EE40CAF0EE60CA9FED8A0B53EC6F
:10510000102B51EC1C0B05F03BF841EC1A0B18EE80
:10511000100A05F02BFB41EC1B0B53EC1A2B04F08F
:1051200085FD41EC190B04F04FFD08EE100ACCE0B0
:1051300088E05BE02EE001E0B7E0AFE0384604F045
:10514000B8FF41EC1D0BB0EE4D1AF0EE6D1A9FED5D
:105150006B0B03F001FEB0EE40CAF0EE60CA9FEDAB
:10516000730B53EC102B51EC1C0B05F009F841ECC0
:105170001A0B18EE100A05F0F9FA41EC1B0B53EC70
:105180001A2B04F053FD41EC190B04F01DFD08EE41
:10519000100A9AE0384604F08CFF41EC1D0BB0EE8B
:1051A0004D1AF0EE6D1A9FED550B03F0D5FDB0EEE4
:1051B00040CAF0EE60CA9FED5F0B53EC102B51EC30
:1051C0001C0B04F0DDFF41EC1A0B18EE100A05F081
:1051D000CDFA41EC1B0B53EC1A2B04F027FD41ECEC
:1051E000190B04F0F1FC08EE100A6EE0384604F0EA
:1051F00060FF41EC1D0BB0EE4D1AF0EE6D1A9FED05
:105200003F0B03F0A9FDB0EE40CAF0EE60CA9FED7F
:105210004B0B53EC102B51EC1C0B04F0B1FF41EC89
:105220001A0B18EE100A05F0A1FA41EC1B0B53EC17
:105230001A2B04F0FBFC41EC190B04F0C5FC08EE42
:10524000100A42E0384604F034FF41EC1D0BB0EE8A
:105250004D1AF0EE6D1A9FED290B03F07DFDB0EEB7
:1052600040CAF0EE60CA9FED370B53EC102B51ECA7
:105270001C0B04F085FF41EC1A0B18EE100A05F028
:1052800075FA41EC1B0B53EC1A2B04F0CFFC41ECEC
:10529000190B04F099FC08EE100A16E0BFEE000AA4
:1052A00028EE000AB0EE408A0FE00EE09FED120AF1
:1052B000B0EE408A2548016825A002F0D4FF9FED9A
:1052C0000E0ABDEC0C8BBDE8F08100BF641E002C03
:1052D000BFF635AEB0EE480AF3E770B505460026D6
:1052E0000024284603F0FEFB0646741E55E0285DA8
:1052F0002D380D284DD237E00000000000000000DE
:1053000000002440000000000000F03F000000000A
:105310000000004000000000000008400000000005
:1053200000001040000000000000144000000000D9
:10533000000018400000000000001C4000000000B9
:10534000000020400000000000002240EC4100204E
:105350000D0A496E76616C696420506172616D65F9
:105360007465722121000000DFE800F011121307BC
:1053700008090A0B0C0D0E0F10000CE00BE00AE000
:1053800009E008E007E006E005E004E003E002E0F1
:1053900001E0002070BD00BF641E002CA7DA0120D0
:1053A000F8E700210160016841607047704770B5FF
:1053B000A2B0054600242846FFF798FD1F90284616
:1053C00003F090FB21901F992198401A002805DDD9
:1053D0001F992198401A401E209001E00020209043
:1053E000002403E0285D19A90855641C1F98A042F9
:1053F000F8DC00BF03E0002019A90855641C0A2C42
:10540000F9DB2098E8B11F98441C07E02A5D1F983B
:10541000201A401E0DF16E010A54641C2198A0420E
:10542000F4DC00BF07E000221F98201A401E0DF197
:105430006E010A54641C1F98201A401E0A28F2DBD1
:1054400008E0002404E000210DF16E000155641C09
:105450000A2CF8DB0DF16E00FFF73FFF28B10DF1CC
:105460006E00FFF74FFD8DED1E0AFCA119A803F099
:10547000CFFB70B9FA480168FAA002F0F4FEF848D0
:10548000016819A802F0EFFE0120F749086000F05A
:105490009EBFF6A119A803F0BBFB68B9F0480168EC
:1054A000F0A002F0E0FEEE48016819A802F0DBFE71
:1054B0000020ED490860EAE7EDA119A803F0A8FB78
:1054C000002848D1209830B39DED1E0AF7EE000A5F
:1054D000B4EE600AF1EE10FA0BD1E648806840F0B5
:1054E0000100E4498860DE480168E3A002F0BBFEE9
:1054F00011E09DED1E0AB5EEC00AF1EE10FA0AD1D8
:10550000DC48806820F00100DA498860D4480168EE
:10551000DBA002F0A8FED2480168D2A002F0A3FEF0
:10552000CF48016819A802F09EFECD480168D6A0B8
:1055300002F099FECF48007A00F0010028B1C84877
:105540000168D2A002F08FFEA1E7C5480168D1A092
:1055500002F089FE9BE7D1A119A803F059FBE0B93D
:1055600000224FF48041CE48FDF792FE00224FF416
:105570000041CB48FDF78CFE00224021C948FDF7D1
:1055800087FEBC48806820F00100BA498860B448B2
:105590000168C5A002F067FE79E7C7A119A803F06A
:1055A00037FB48BB209830B19DED1E0ABDEEC00A06
:1055B000C34880ED130AAA480168AAA002F053FE6E
:1055C000A748016819A802F04EFEA5480168AEA0E0
:1055D00002F049FEBA48D0ED130AF8EEE00AB0EE48
:1055E000600A6946032002F09AFE06469C4801685C
:1055F000304602F038FE4AE7B2A119A803F008FBD2
:1056000078BB209860B19DED1E0ABDEEC00AAC4883
:1056100080ED010A9DED1E0ABDEEC00A80ED0A0A6A
:105620008F4801688FA002F01EFE8D48016819A8FE
:1056300002F019FE8A48016893A002F014FEA04807
:10564000D0ED010AF8EEE00AB0EE600A69460320E8
:1056500002F065FE064682480168304602F003FE0D
:1056600015E7FFE798A119A803F0D2FA78BB2098B4
:1056700060B19DED1E0ABDEEC00A914880ED020AA0
:105680009DED1E0ABDEEC00A80ED0B0A744801684C
:1056900074A002F0E8FD7248016819A802F0E3FD69
:1056A0006F48016878A002F0DEFD8548D0ED020A5F
:1056B000F8EEE00AB0EE600A6946032002F02FFE21
:1056C000064667480168304602F0CDFDDFE6FFE799
:1056D0007EA119A803F09CFA38BB209830B19DED4B
:1056E0001E0ABDEEC00A7A4880ED000A5C480168D7
:1056F0005CA002F0B8FD5A48016819A802F0B3FD99
:105700005748016860A002F0AEFD69460320704A68
:1057100092ED000AB8EEC00A02F001FE06465048BB
:105720000168304602F09FFDB1E66AA119A803F0B6
:105730006FFA00287ED12098D0B101206649086018
:10574000002066490860012291035548FDF7A0FD3D
:105750000122D1035248FDF79BFD0122402151480F
:10576000FDF796FD4348806840F00100414988609C
:105770003B4801683BA002F076FD3948016819A852
:1057800002F071FD364801683FA002F06CFD6946E9
:105790000320514A92ED000AB8EEC00A02F0BFFDA4
:1057A00006462F480168304602F05DFD6420FBF795
:1057B000E8FC00224FF480413948FDF769FD0022E2
:1057C0004FF400413648FDF763FD00224021354883
:1057D000FDF75EFD2748806820F0010025498860BC
:1057E0001F4801681FA002F03EFD1D4801683CA053
:1057F00002F039FD0020394908601948016819A0F4
:1058000002F031FD1648016837A002F02CFD1CE0C3
:105810003749324A126851F82200694602F030FDD9
:1058200006460F480168304602F01DFD0C4801682D
:1058300030A000E060E002F016FD28480068401C3F
:10584000264908600220FBF79CFC24480068B0F55C
:105850007A7FDDDB00202149086018E67965730056
:10586000EC4100200D0A0000040300206E6F0000D0
:105870004D4F0000A400002052756E0D0A0000007C
:105880000D0A53746F7000002000000020310D0AD3
:105890000000000020300D0A000000006B00000036
:1058A00000040240000802400D0A456D65726765FC
:1058B0006E637953746F7000636D6449000000007B
:1058C0005C6F01206B6370006B6369005443490097
:1058D0001403002074430000100300200C03002078
:1058E00049643A0D0A00000049713A0D0A000000AF
:1058F000187001202C000000FEA119A803F088F9FF
:1059000058BB209830B19DED1E0ABDEEC00AFB4881
:1059100080ED0A0AFA480168AFF2B80002F0A3FC71
:10592000F748016819A802F09EFCF5480168AFF23B
:10593000A80002F098FCF148D0ED0A0AF8EEE00A5F
:10594000B0EE600A6946032002F0E9FC0646EC4826
:105950000168304602F087FC99E5EAA119A803F036
:1059600057F958BB209830B19DED1E0ABDEEC00A14
:10597000E24880ED020AE2480168AFF2181002F036
:1059800072FCDF48016819A802F06DFCDC48016870
:10599000AFF20C1002F067FCD848D0ED020AF8EE26
:1059A000E00AB0EE600A6946032002F0B8FC064641
:1059B000D3480168304602F056FC68E5D2A119A828
:1059C00003F026F958BB209830B19DED1E0ABDEEBC
:1059D000C00ACA4880ED030AC9480168AFF27C10CA
:1059E00002F041FCC648016819A802F03CFCC4481A
:1059F0000168AFF26C1002F036FCC048D0ED030A2B
:105A0000F8EEE00AB0EE600A6946032002F087FC77
:105A10000646BB480168304602F025FC37E5BBA1CD
:105A200019A803F0F5F848BB209830B19DED1E0A87
:105A3000BDEEC00AB64880ED000AB1480168AFF279
:105A4000DC1002F010FCAE48016819A802F00BFC53
:105A5000AB480168AFF2D01002F005FC69460320A4
:105A6000AB4A92ED000AB8EEC00A02F058FC0646B6
:105A7000A3480168304602F0F6FB08E5A5A119A885
:105A800003F0C6F8002872D12098D0B10120A249B5
:105A900008600020A149086001229103A048FDF799
:105AA000F7FB0122D1039E48FDF7F2FB01224021C2
:105AB0009C48FDF7EDFB9C48806840F001009A4946
:105AC00088608F480168AFF2642002F0CCFB8C48FC
:105AD000016819A802F0C7FB89480168AFF2582095
